{
	"BankSmartContractSolidity/FirstSolidity.sol": {
		"FirstSolidity": {
			"abi": [
				{
					"inputs": [],
					"name": "AccountName",
					"outputs": [
						{
							"internalType": "string",
							"name": "",
							"type": "string"
						}
					],
					"stateMutability": "view",
					"type": "function"
				},
				{
					"inputs": [],
					"name": "BankBalance",
					"outputs": [
						{
							"internalType": "uint256",
							"name": "",
							"type": "uint256"
						}
					],
					"stateMutability": "view",
					"type": "function"
				},
				{
					"inputs": [],
					"name": "MetaMaskWallet",
					"outputs": [
						{
							"internalType": "address",
							"name": "",
							"type": "address"
						}
					],
					"stateMutability": "view",
					"type": "function"
				},
				{
					"inputs": [],
					"name": "NumberOfTransactions",
					"outputs": [
						{
							"internalType": "int256",
							"name": "",
							"type": "int256"
						}
					],
					"stateMutability": "view",
					"type": "function"
				},
				{
					"inputs": [],
					"name": "OverDraftFlag",
					"outputs": [
						{
							"internalType": "bool",
							"name": "",
							"type": "bool"
						}
					],
					"stateMutability": "view",
					"type": "function"
				}
			],
			"devdoc": {
				"kind": "dev",
				"methods": {},
				"version": 1
			},
			"evm": {
				"assembly": "    /* \"BankSmartContractSolidity/FirstSolidity.sol\":61:350  contract FirstSolidity {... */\n  mstore(0x40, 0x80)\n    /* \"BankSmartContractSolidity/FirstSolidity.sol\":122:124  50 */\n  0x32\n    /* \"BankSmartContractSolidity/FirstSolidity.sol\":93:124  uint256 public BankBalance = 50 */\n  0x00\n  sstore\n    /* \"BankSmartContractSolidity/FirstSolidity.sol\":159:163  true */\n  0x01\n    /* \"BankSmartContractSolidity/FirstSolidity.sol\":131:163  bool public OverDraftFlag = true */\n  dup1\n  exp(0x0100, 0x00)\n  dup2\n  sload\n  dup2\n  0xff\n  mul\n  not\n  and\n  swap1\n  dup4\n  iszero\n  iszero\n  mul\n  or\n  swap1\n  sstore\n  pop\n    /* \"BankSmartContractSolidity/FirstSolidity.sol\":170:214  string public AccountName = \"Vellieswaran R\" */\n  mload(0x40)\n  dup1\n  0x40\n  add\n  0x40\n  mstore\n  dup1\n  0x0e\n  dup2\n  mstore\n  0x20\n  add\n  0x56656c6c696573776172616e2052000000000000000000000000000000000000\n  dup2\n  mstore\n  pop\n  0x02\n  swap1\n  dup1\n  mload\n  swap1\n  0x20\n  add\n  swap1\n  tag_1\n  swap3\n  swap2\n  swap1\n  tag_2\n  jump\t// in\ntag_1:\n  pop\n    /* \"BankSmartContractSolidity/FirstSolidity.sol\":255:257  10 */\n  0x0a\n    /* \"BankSmartContractSolidity/FirstSolidity.sol\":221:257  int public NumberOfTransactions = 10 */\n  0x03\n  sstore\n    /* \"BankSmartContractSolidity/FirstSolidity.sol\":300:344  bytes32 AccountEmail = \"vellies@yopmail.com\" */\n  sstore(0x05, 0x76656c6c69657340796f706d61696c2e636f6d00000000000000000000000000)\n    /* \"BankSmartContractSolidity/FirstSolidity.sol\":61:350  contract FirstSolidity {... */\n  callvalue\n  dup1\n  iszero\n  tag_3\n  jumpi\n  0x00\n  dup1\n  revert\ntag_3:\n  pop\n  jump(tag_4)\ntag_2:\n  dup3\n  dup1\n  sload\n  tag_5\n  swap1\n  tag_6\n  jump\t// in\ntag_5:\n  swap1\n  0x00\n  mstore\n  keccak256(0x00, 0x20)\n  swap1\n  0x1f\n  add\n  0x20\n  swap1\n  div\n  dup2\n  add\n  swap3\n  dup3\n  tag_8\n  jumpi\n  0x00\n  dup6\n  sstore\n  jump(tag_7)\ntag_8:\n  dup3\n  0x1f\n  lt\n  tag_9\n  jumpi\n  dup1\n  mload\n  not(0xff)\n  and\n  dup4\n  dup1\n  add\n  or\n  dup6\n  sstore\n  jump(tag_7)\ntag_9:\n  dup3\n  dup1\n  add\n  0x01\n  add\n  dup6\n  sstore\n  dup3\n  iszero\n  tag_7\n  jumpi\n  swap2\n  dup3\n  add\ntag_10:\n  dup3\n  dup2\n  gt\n  iszero\n  tag_11\n  jumpi\n  dup3\n  mload\n  dup3\n  sstore\n  swap2\n  0x20\n  add\n  swap2\n  swap1\n  0x01\n  add\n  swap1\n  jump(tag_10)\ntag_11:\ntag_7:\n  pop\n  swap1\n  pop\n  tag_12\n  swap2\n  swap1\n  tag_13\n  jump\t// in\ntag_12:\n  pop\n  swap1\n  jump\t// out\ntag_13:\ntag_14:\n  dup1\n  dup3\n  gt\n  iszero\n  tag_15\n  jumpi\n  0x00\n  dup2\n  0x00\n  swap1\n  sstore\n  pop\n  0x01\n  add\n  jump(tag_14)\ntag_15:\n  pop\n  swap1\n  jump\t// out\n    /* \"#utility.yul\":7:187   */\ntag_16:\n    /* \"#utility.yul\":55:132   */\n  0x4e487b7100000000000000000000000000000000000000000000000000000000\n    /* \"#utility.yul\":52:53   */\n  0x00\n    /* \"#utility.yul\":45:133   */\n  mstore\n    /* \"#utility.yul\":152:156   */\n  0x22\n    /* \"#utility.yul\":149:150   */\n  0x04\n    /* \"#utility.yul\":142:157   */\n  mstore\n    /* \"#utility.yul\":176:180   */\n  0x24\n    /* \"#utility.yul\":173:174   */\n  0x00\n    /* \"#utility.yul\":166:181   */\n  revert\n    /* \"#utility.yul\":193:513   */\ntag_6:\n    /* \"#utility.yul\":237:243   */\n  0x00\n    /* \"#utility.yul\":274:275   */\n  0x02\n    /* \"#utility.yul\":268:272   */\n  dup3\n    /* \"#utility.yul\":264:276   */\n  div\n    /* \"#utility.yul\":254:276   */\n  swap1\n  pop\n    /* \"#utility.yul\":321:322   */\n  0x01\n    /* \"#utility.yul\":315:319   */\n  dup3\n    /* \"#utility.yul\":311:323   */\n  and\n    /* \"#utility.yul\":342:360   */\n  dup1\n    /* \"#utility.yul\":332:413   */\n  tag_20\n  jumpi\n    /* \"#utility.yul\":398:402   */\n  0x7f\n    /* \"#utility.yul\":390:396   */\n  dup3\n    /* \"#utility.yul\":386:403   */\n  and\n    /* \"#utility.yul\":376:403   */\n  swap2\n  pop\n    /* \"#utility.yul\":332:413   */\ntag_20:\n    /* \"#utility.yul\":460:462   */\n  0x20\n    /* \"#utility.yul\":452:458   */\n  dup3\n    /* \"#utility.yul\":449:463   */\n  lt\n    /* \"#utility.yul\":429:447   */\n  dup2\n    /* \"#utility.yul\":426:464   */\n  eq\n    /* \"#utility.yul\":423:507   */\n  iszero\n  tag_21\n  jumpi\n    /* \"#utility.yul\":479:497   */\n  tag_22\n  tag_16\n  jump\t// in\ntag_22:\n    /* \"#utility.yul\":423:507   */\ntag_21:\n    /* \"#utility.yul\":244:513   */\n  pop\n    /* \"#utility.yul\":193:513   */\n  swap2\n  swap1\n  pop\n  jump\t// out\n    /* \"BankSmartContractSolidity/FirstSolidity.sol\":61:350  contract FirstSolidity {... */\ntag_4:\n  dataSize(sub_0)\n  dup1\n  dataOffset(sub_0)\n  0x00\n  codecopy\n  0x00\n  return\nstop\n\nsub_0: assembly {\n        /* \"BankSmartContractSolidity/FirstSolidity.sol\":61:350  contract FirstSolidity {... */\n      mstore(0x40, 0x80)\n      callvalue\n      dup1\n      iszero\n      tag_1\n      jumpi\n      0x00\n      dup1\n      revert\n    tag_1:\n      pop\n      jumpi(tag_2, lt(calldatasize, 0x04))\n      shr(0xe0, calldataload(0x00))\n      dup1\n      0x807d3cad\n      eq\n      tag_3\n      jumpi\n      dup1\n      0x9433683e\n      eq\n      tag_4\n      jumpi\n      dup1\n      0xa2635f81\n      eq\n      tag_5\n      jumpi\n      dup1\n      0xae176c86\n      eq\n      tag_6\n      jumpi\n      dup1\n      0xc682d43f\n      eq\n      tag_7\n      jumpi\n    tag_2:\n      0x00\n      dup1\n      revert\n        /* \"BankSmartContractSolidity/FirstSolidity.sol\":221:257  int public NumberOfTransactions = 10 */\n    tag_3:\n      tag_8\n      tag_9\n      jump\t// in\n    tag_8:\n      mload(0x40)\n      tag_10\n      swap2\n      swap1\n      tag_11\n      jump\t// in\n    tag_10:\n      mload(0x40)\n      dup1\n      swap2\n      sub\n      swap1\n      return\n        /* \"BankSmartContractSolidity/FirstSolidity.sol\":264:293  address public MetaMaskWallet */\n    tag_4:\n      tag_12\n      tag_13\n      jump\t// in\n    tag_12:\n      mload(0x40)\n      tag_14\n      swap2\n      swap1\n      tag_15\n      jump\t// in\n    tag_14:\n      mload(0x40)\n      dup1\n      swap2\n      sub\n      swap1\n      return\n        /* \"BankSmartContractSolidity/FirstSolidity.sol\":131:163  bool public OverDraftFlag = true */\n    tag_5:\n      tag_16\n      tag_17\n      jump\t// in\n    tag_16:\n      mload(0x40)\n      tag_18\n      swap2\n      swap1\n      tag_19\n      jump\t// in\n    tag_18:\n      mload(0x40)\n      dup1\n      swap2\n      sub\n      swap1\n      return\n        /* \"BankSmartContractSolidity/FirstSolidity.sol\":93:124  uint256 public BankBalance = 50 */\n    tag_6:\n      tag_20\n      tag_21\n      jump\t// in\n    tag_20:\n      mload(0x40)\n      tag_22\n      swap2\n      swap1\n      tag_23\n      jump\t// in\n    tag_22:\n      mload(0x40)\n      dup1\n      swap2\n      sub\n      swap1\n      return\n        /* \"BankSmartContractSolidity/FirstSolidity.sol\":170:214  string public AccountName = \"Vellieswaran R\" */\n    tag_7:\n      tag_24\n      tag_25\n      jump\t// in\n    tag_24:\n      mload(0x40)\n      tag_26\n      swap2\n      swap1\n      tag_27\n      jump\t// in\n    tag_26:\n      mload(0x40)\n      dup1\n      swap2\n      sub\n      swap1\n      return\n        /* \"BankSmartContractSolidity/FirstSolidity.sol\":221:257  int public NumberOfTransactions = 10 */\n    tag_9:\n      sload(0x03)\n      dup2\n      jump\t// out\n        /* \"BankSmartContractSolidity/FirstSolidity.sol\":264:293  address public MetaMaskWallet */\n    tag_13:\n      0x04\n      0x00\n      swap1\n      sload\n      swap1\n      0x0100\n      exp\n      swap1\n      div\n      0xffffffffffffffffffffffffffffffffffffffff\n      and\n      dup2\n      jump\t// out\n        /* \"BankSmartContractSolidity/FirstSolidity.sol\":131:163  bool public OverDraftFlag = true */\n    tag_17:\n      0x01\n      0x00\n      swap1\n      sload\n      swap1\n      0x0100\n      exp\n      swap1\n      div\n      0xff\n      and\n      dup2\n      jump\t// out\n        /* \"BankSmartContractSolidity/FirstSolidity.sol\":93:124  uint256 public BankBalance = 50 */\n    tag_21:\n      sload(0x00)\n      dup2\n      jump\t// out\n        /* \"BankSmartContractSolidity/FirstSolidity.sol\":170:214  string public AccountName = \"Vellieswaran R\" */\n    tag_25:\n      0x02\n      dup1\n      sload\n      tag_28\n      swap1\n      tag_29\n      jump\t// in\n    tag_28:\n      dup1\n      0x1f\n      add\n      0x20\n      dup1\n      swap2\n      div\n      mul\n      0x20\n      add\n      mload(0x40)\n      swap1\n      dup2\n      add\n      0x40\n      mstore\n      dup1\n      swap3\n      swap2\n      swap1\n      dup2\n      dup2\n      mstore\n      0x20\n      add\n      dup3\n      dup1\n      sload\n      tag_30\n      swap1\n      tag_29\n      jump\t// in\n    tag_30:\n      dup1\n      iszero\n      tag_31\n      jumpi\n      dup1\n      0x1f\n      lt\n      tag_32\n      jumpi\n      0x0100\n      dup1\n      dup4\n      sload\n      div\n      mul\n      dup4\n      mstore\n      swap2\n      0x20\n      add\n      swap2\n      jump(tag_31)\n    tag_32:\n      dup3\n      add\n      swap2\n      swap1\n      0x00\n      mstore\n      keccak256(0x00, 0x20)\n      swap1\n    tag_33:\n      dup2\n      sload\n      dup2\n      mstore\n      swap1\n      0x01\n      add\n      swap1\n      0x20\n      add\n      dup1\n      dup4\n      gt\n      tag_33\n      jumpi\n      dup3\n      swap1\n      sub\n      0x1f\n      and\n      dup3\n      add\n      swap2\n    tag_31:\n      pop\n      pop\n      pop\n      pop\n      pop\n      dup2\n      jump\t// out\n        /* \"#utility.yul\":7:83   */\n    tag_34:\n        /* \"#utility.yul\":43:50   */\n      0x00\n        /* \"#utility.yul\":72:77   */\n      dup2\n        /* \"#utility.yul\":61:77   */\n      swap1\n      pop\n        /* \"#utility.yul\":7:83   */\n      swap2\n      swap1\n      pop\n      jump\t// out\n        /* \"#utility.yul\":89:204   */\n    tag_35:\n        /* \"#utility.yul\":174:197   */\n      tag_52\n        /* \"#utility.yul\":191:196   */\n      dup2\n        /* \"#utility.yul\":174:197   */\n      tag_34\n      jump\t// in\n    tag_52:\n        /* \"#utility.yul\":169:172   */\n      dup3\n        /* \"#utility.yul\":162:198   */\n      mstore\n        /* \"#utility.yul\":89:204   */\n      pop\n      pop\n      jump\t// out\n        /* \"#utility.yul\":210:428   */\n    tag_11:\n        /* \"#utility.yul\":301:305   */\n      0x00\n        /* \"#utility.yul\":339:341   */\n      0x20\n        /* \"#utility.yul\":328:337   */\n      dup3\n        /* \"#utility.yul\":324:342   */\n      add\n        /* \"#utility.yul\":316:342   */\n      swap1\n      pop\n        /* \"#utility.yul\":352:421   */\n      tag_54\n        /* \"#utility.yul\":418:419   */\n      0x00\n        /* \"#utility.yul\":407:416   */\n      dup4\n        /* \"#utility.yul\":403:420   */\n      add\n        /* \"#utility.yul\":394:400   */\n      dup5\n        /* \"#utility.yul\":352:421   */\n      tag_35\n      jump\t// in\n    tag_54:\n        /* \"#utility.yul\":210:428   */\n      swap3\n      swap2\n      pop\n      pop\n      jump\t// out\n        /* \"#utility.yul\":434:560   */\n    tag_36:\n        /* \"#utility.yul\":471:478   */\n      0x00\n        /* \"#utility.yul\":511:553   */\n      0xffffffffffffffffffffffffffffffffffffffff\n        /* \"#utility.yul\":504:509   */\n      dup3\n        /* \"#utility.yul\":500:554   */\n      and\n        /* \"#utility.yul\":489:554   */\n      swap1\n      pop\n        /* \"#utility.yul\":434:560   */\n      swap2\n      swap1\n      pop\n      jump\t// out\n        /* \"#utility.yul\":566:662   */\n    tag_37:\n        /* \"#utility.yul\":603:610   */\n      0x00\n        /* \"#utility.yul\":632:656   */\n      tag_57\n        /* \"#utility.yul\":650:655   */\n      dup3\n        /* \"#utility.yul\":632:656   */\n      tag_36\n      jump\t// in\n    tag_57:\n        /* \"#utility.yul\":621:656   */\n      swap1\n      pop\n        /* \"#utility.yul\":566:662   */\n      swap2\n      swap1\n      pop\n      jump\t// out\n        /* \"#utility.yul\":668:786   */\n    tag_38:\n        /* \"#utility.yul\":755:779   */\n      tag_59\n        /* \"#utility.yul\":773:778   */\n      dup2\n        /* \"#utility.yul\":755:779   */\n      tag_37\n      jump\t// in\n    tag_59:\n        /* \"#utility.yul\":750:753   */\n      dup3\n        /* \"#utility.yul\":743:780   */\n      mstore\n        /* \"#utility.yul\":668:786   */\n      pop\n      pop\n      jump\t// out\n        /* \"#utility.yul\":792:1014   */\n    tag_15:\n        /* \"#utility.yul\":885:889   */\n      0x00\n        /* \"#utility.yul\":923:925   */\n      0x20\n        /* \"#utility.yul\":912:921   */\n      dup3\n        /* \"#utility.yul\":908:926   */\n      add\n        /* \"#utility.yul\":900:926   */\n      swap1\n      pop\n        /* \"#utility.yul\":936:1007   */\n      tag_61\n        /* \"#utility.yul\":1004:1005   */\n      0x00\n        /* \"#utility.yul\":993:1002   */\n      dup4\n        /* \"#utility.yul\":989:1006   */\n      add\n        /* \"#utility.yul\":980:986   */\n      dup5\n        /* \"#utility.yul\":936:1007   */\n      tag_38\n      jump\t// in\n    tag_61:\n        /* \"#utility.yul\":792:1014   */\n      swap3\n      swap2\n      pop\n      pop\n      jump\t// out\n        /* \"#utility.yul\":1020:1110   */\n    tag_39:\n        /* \"#utility.yul\":1054:1061   */\n      0x00\n        /* \"#utility.yul\":1097:1102   */\n      dup2\n        /* \"#utility.yul\":1090:1103   */\n      iszero\n        /* \"#utility.yul\":1083:1104   */\n      iszero\n        /* \"#utility.yul\":1072:1104   */\n      swap1\n      pop\n        /* \"#utility.yul\":1020:1110   */\n      swap2\n      swap1\n      pop\n      jump\t// out\n        /* \"#utility.yul\":1116:1225   */\n    tag_40:\n        /* \"#utility.yul\":1197:1218   */\n      tag_64\n        /* \"#utility.yul\":1212:1217   */\n      dup2\n        /* \"#utility.yul\":1197:1218   */\n      tag_39\n      jump\t// in\n    tag_64:\n        /* \"#utility.yul\":1192:1195   */\n      dup3\n        /* \"#utility.yul\":1185:1219   */\n      mstore\n        /* \"#utility.yul\":1116:1225   */\n      pop\n      pop\n      jump\t// out\n        /* \"#utility.yul\":1231:1441   */\n    tag_19:\n        /* \"#utility.yul\":1318:1322   */\n      0x00\n        /* \"#utility.yul\":1356:1358   */\n      0x20\n        /* \"#utility.yul\":1345:1354   */\n      dup3\n        /* \"#utility.yul\":1341:1359   */\n      add\n        /* \"#utility.yul\":1333:1359   */\n      swap1\n      pop\n        /* \"#utility.yul\":1369:1434   */\n      tag_66\n        /* \"#utility.yul\":1431:1432   */\n      0x00\n        /* \"#utility.yul\":1420:1429   */\n      dup4\n        /* \"#utility.yul\":1416:1433   */\n      add\n        /* \"#utility.yul\":1407:1413   */\n      dup5\n        /* \"#utility.yul\":1369:1434   */\n      tag_40\n      jump\t// in\n    tag_66:\n        /* \"#utility.yul\":1231:1441   */\n      swap3\n      swap2\n      pop\n      pop\n      jump\t// out\n        /* \"#utility.yul\":1447:1524   */\n    tag_41:\n        /* \"#utility.yul\":1484:1491   */\n      0x00\n        /* \"#utility.yul\":1513:1518   */\n      dup2\n        /* \"#utility.yul\":1502:1518   */\n      swap1\n      pop\n        /* \"#utility.yul\":1447:1524   */\n      swap2\n      swap1\n      pop\n      jump\t// out\n        /* \"#utility.yul\":1530:1648   */\n    tag_42:\n        /* \"#utility.yul\":1617:1641   */\n      tag_69\n        /* \"#utility.yul\":1635:1640   */\n      dup2\n        /* \"#utility.yul\":1617:1641   */\n      tag_41\n      jump\t// in\n    tag_69:\n        /* \"#utility.yul\":1612:1615   */\n      dup3\n        /* \"#utility.yul\":1605:1642   */\n      mstore\n        /* \"#utility.yul\":1530:1648   */\n      pop\n      pop\n      jump\t// out\n        /* \"#utility.yul\":1654:1876   */\n    tag_23:\n        /* \"#utility.yul\":1747:1751   */\n      0x00\n        /* \"#utility.yul\":1785:1787   */\n      0x20\n        /* \"#utility.yul\":1774:1783   */\n      dup3\n        /* \"#utility.yul\":1770:1788   */\n      add\n        /* \"#utility.yul\":1762:1788   */\n      swap1\n      pop\n        /* \"#utility.yul\":1798:1869   */\n      tag_71\n        /* \"#utility.yul\":1866:1867   */\n      0x00\n        /* \"#utility.yul\":1855:1864   */\n      dup4\n        /* \"#utility.yul\":1851:1868   */\n      add\n        /* \"#utility.yul\":1842:1848   */\n      dup5\n        /* \"#utility.yul\":1798:1869   */\n      tag_42\n      jump\t// in\n    tag_71:\n        /* \"#utility.yul\":1654:1876   */\n      swap3\n      swap2\n      pop\n      pop\n      jump\t// out\n        /* \"#utility.yul\":1882:1981   */\n    tag_43:\n        /* \"#utility.yul\":1934:1940   */\n      0x00\n        /* \"#utility.yul\":1968:1973   */\n      dup2\n        /* \"#utility.yul\":1962:1974   */\n      mload\n        /* \"#utility.yul\":1952:1974   */\n      swap1\n      pop\n        /* \"#utility.yul\":1882:1981   */\n      swap2\n      swap1\n      pop\n      jump\t// out\n        /* \"#utility.yul\":1987:2156   */\n    tag_44:\n        /* \"#utility.yul\":2071:2082   */\n      0x00\n        /* \"#utility.yul\":2105:2111   */\n      dup3\n        /* \"#utility.yul\":2100:2103   */\n      dup3\n        /* \"#utility.yul\":2093:2112   */\n      mstore\n        /* \"#utility.yul\":2145:2149   */\n      0x20\n        /* \"#utility.yul\":2140:2143   */\n      dup3\n        /* \"#utility.yul\":2136:2150   */\n      add\n        /* \"#utility.yul\":2121:2150   */\n      swap1\n      pop\n        /* \"#utility.yul\":1987:2156   */\n      swap3\n      swap2\n      pop\n      pop\n      jump\t// out\n        /* \"#utility.yul\":2162:2469   */\n    tag_45:\n        /* \"#utility.yul\":2230:2231   */\n      0x00\n        /* \"#utility.yul\":2240:2353   */\n    tag_75:\n        /* \"#utility.yul\":2254:2260   */\n      dup4\n        /* \"#utility.yul\":2251:2252   */\n      dup2\n        /* \"#utility.yul\":2248:2261   */\n      lt\n        /* \"#utility.yul\":2240:2353   */\n      iszero\n      tag_77\n      jumpi\n        /* \"#utility.yul\":2339:2340   */\n      dup1\n        /* \"#utility.yul\":2334:2337   */\n      dup3\n        /* \"#utility.yul\":2330:2341   */\n      add\n        /* \"#utility.yul\":2324:2342   */\n      mload\n        /* \"#utility.yul\":2320:2321   */\n      dup2\n        /* \"#utility.yul\":2315:2318   */\n      dup5\n        /* \"#utility.yul\":2311:2322   */\n      add\n        /* \"#utility.yul\":2304:2343   */\n      mstore\n        /* \"#utility.yul\":2276:2278   */\n      0x20\n        /* \"#utility.yul\":2273:2274   */\n      dup2\n        /* \"#utility.yul\":2269:2279   */\n      add\n        /* \"#utility.yul\":2264:2279   */\n      swap1\n      pop\n        /* \"#utility.yul\":2240:2353   */\n      jump(tag_75)\n    tag_77:\n        /* \"#utility.yul\":2371:2377   */\n      dup4\n        /* \"#utility.yul\":2368:2369   */\n      dup2\n        /* \"#utility.yul\":2365:2378   */\n      gt\n        /* \"#utility.yul\":2362:2463   */\n      iszero\n      tag_78\n      jumpi\n        /* \"#utility.yul\":2451:2452   */\n      0x00\n        /* \"#utility.yul\":2442:2448   */\n      dup5\n        /* \"#utility.yul\":2437:2440   */\n      dup5\n        /* \"#utility.yul\":2433:2449   */\n      add\n        /* \"#utility.yul\":2426:2453   */\n      mstore\n        /* \"#utility.yul\":2362:2463   */\n    tag_78:\n        /* \"#utility.yul\":2211:2469   */\n      pop\n        /* \"#utility.yul\":2162:2469   */\n      pop\n      pop\n      pop\n      jump\t// out\n        /* \"#utility.yul\":2475:2577   */\n    tag_46:\n        /* \"#utility.yul\":2516:2522   */\n      0x00\n        /* \"#utility.yul\":2567:2569   */\n      0x1f\n        /* \"#utility.yul\":2563:2570   */\n      not\n        /* \"#utility.yul\":2558:2560   */\n      0x1f\n        /* \"#utility.yul\":2551:2556   */\n      dup4\n        /* \"#utility.yul\":2547:2561   */\n      add\n        /* \"#utility.yul\":2543:2571   */\n      and\n        /* \"#utility.yul\":2533:2571   */\n      swap1\n      pop\n        /* \"#utility.yul\":2475:2577   */\n      swap2\n      swap1\n      pop\n      jump\t// out\n        /* \"#utility.yul\":2583:2947   */\n    tag_47:\n        /* \"#utility.yul\":2671:2674   */\n      0x00\n        /* \"#utility.yul\":2699:2738   */\n      tag_81\n        /* \"#utility.yul\":2732:2737   */\n      dup3\n        /* \"#utility.yul\":2699:2738   */\n      tag_43\n      jump\t// in\n    tag_81:\n        /* \"#utility.yul\":2754:2825   */\n      tag_82\n        /* \"#utility.yul\":2818:2824   */\n      dup2\n        /* \"#utility.yul\":2813:2816   */\n      dup6\n        /* \"#utility.yul\":2754:2825   */\n      tag_44\n      jump\t// in\n    tag_82:\n        /* \"#utility.yul\":2747:2825   */\n      swap4\n      pop\n        /* \"#utility.yul\":2834:2886   */\n      tag_83\n        /* \"#utility.yul\":2879:2885   */\n      dup2\n        /* \"#utility.yul\":2874:2877   */\n      dup6\n        /* \"#utility.yul\":2867:2871   */\n      0x20\n        /* \"#utility.yul\":2860:2865   */\n      dup7\n        /* \"#utility.yul\":2856:2872   */\n      add\n        /* \"#utility.yul\":2834:2886   */\n      tag_45\n      jump\t// in\n    tag_83:\n        /* \"#utility.yul\":2911:2940   */\n      tag_84\n        /* \"#utility.yul\":2933:2939   */\n      dup2\n        /* \"#utility.yul\":2911:2940   */\n      tag_46\n      jump\t// in\n    tag_84:\n        /* \"#utility.yul\":2906:2909   */\n      dup5\n        /* \"#utility.yul\":2902:2941   */\n      add\n        /* \"#utility.yul\":2895:2941   */\n      swap2\n      pop\n        /* \"#utility.yul\":2675:2947   */\n      pop\n        /* \"#utility.yul\":2583:2947   */\n      swap3\n      swap2\n      pop\n      pop\n      jump\t// out\n        /* \"#utility.yul\":2953:3266   */\n    tag_27:\n        /* \"#utility.yul\":3066:3070   */\n      0x00\n        /* \"#utility.yul\":3104:3106   */\n      0x20\n        /* \"#utility.yul\":3093:3102   */\n      dup3\n        /* \"#utility.yul\":3089:3107   */\n      add\n        /* \"#utility.yul\":3081:3107   */\n      swap1\n      pop\n        /* \"#utility.yul\":3153:3162   */\n      dup2\n        /* \"#utility.yul\":3147:3151   */\n      dup2\n        /* \"#utility.yul\":3143:3163   */\n      sub\n        /* \"#utility.yul\":3139:3140   */\n      0x00\n        /* \"#utility.yul\":3128:3137   */\n      dup4\n        /* \"#utility.yul\":3124:3141   */\n      add\n        /* \"#utility.yul\":3117:3164   */\n      mstore\n        /* \"#utility.yul\":3181:3259   */\n      tag_86\n        /* \"#utility.yul\":3254:3258   */\n      dup2\n        /* \"#utility.yul\":3245:3251   */\n      dup5\n        /* \"#utility.yul\":3181:3259   */\n      tag_47\n      jump\t// in\n    tag_86:\n        /* \"#utility.yul\":3173:3259   */\n      swap1\n      pop\n        /* \"#utility.yul\":2953:3266   */\n      swap3\n      swap2\n      pop\n      pop\n      jump\t// out\n        /* \"#utility.yul\":3272:3452   */\n    tag_48:\n        /* \"#utility.yul\":3320:3397   */\n      0x4e487b7100000000000000000000000000000000000000000000000000000000\n        /* \"#utility.yul\":3317:3318   */\n      0x00\n        /* \"#utility.yul\":3310:3398   */\n      mstore\n        /* \"#utility.yul\":3417:3421   */\n      0x22\n        /* \"#utility.yul\":3414:3415   */\n      0x04\n        /* \"#utility.yul\":3407:3422   */\n      mstore\n        /* \"#utility.yul\":3441:3445   */\n      0x24\n        /* \"#utility.yul\":3438:3439   */\n      0x00\n        /* \"#utility.yul\":3431:3446   */\n      revert\n        /* \"#utility.yul\":3458:3778   */\n    tag_29:\n        /* \"#utility.yul\":3502:3508   */\n      0x00\n        /* \"#utility.yul\":3539:3540   */\n      0x02\n        /* \"#utility.yul\":3533:3537   */\n      dup3\n        /* \"#utility.yul\":3529:3541   */\n      div\n        /* \"#utility.yul\":3519:3541   */\n      swap1\n      pop\n        /* \"#utility.yul\":3586:3587   */\n      0x01\n        /* \"#utility.yul\":3580:3584   */\n      dup3\n        /* \"#utility.yul\":3576:3588   */\n      and\n        /* \"#utility.yul\":3607:3625   */\n      dup1\n        /* \"#utility.yul\":3597:3678   */\n      tag_89\n      jumpi\n        /* \"#utility.yul\":3663:3667   */\n      0x7f\n        /* \"#utility.yul\":3655:3661   */\n      dup3\n        /* \"#utility.yul\":3651:3668   */\n      and\n        /* \"#utility.yul\":3641:3668   */\n      swap2\n      pop\n        /* \"#utility.yul\":3597:3678   */\n    tag_89:\n        /* \"#utility.yul\":3725:3727   */\n      0x20\n        /* \"#utility.yul\":3717:3723   */\n      dup3\n        /* \"#utility.yul\":3714:3728   */\n      lt\n        /* \"#utility.yul\":3694:3712   */\n      dup2\n        /* \"#utility.yul\":3691:3729   */\n      eq\n        /* \"#utility.yul\":3688:3772   */\n      iszero\n      tag_90\n      jumpi\n        /* \"#utility.yul\":3744:3762   */\n      tag_91\n      tag_48\n      jump\t// in\n    tag_91:\n        /* \"#utility.yul\":3688:3772   */\n    tag_90:\n        /* \"#utility.yul\":3509:3778   */\n      pop\n        /* \"#utility.yul\":3458:3778   */\n      swap2\n      swap1\n      pop\n      jump\t// out\n\n    auxdata: 0xa2646970667358221220c6f41fc164fa6114326d60c2b4e73d489ed1d80894df1c81df378254663d28b864736f6c63430008080033\n}\n",
				"bytecode": {
					"linkReferences": {},
					"object": "6080604052603260005560018060006101000a81548160ff0219169083151502179055506040518060400160405280600e81526020017f56656c6c696573776172616e20520000000000000000000000000000000000008152506002908051906020019061006e9291906100aa565b50600a6003557f76656c6c69657340796f706d61696c2e636f6d000000000000000000000000006005553480156100a457600080fd5b506101ae565b8280546100b69061017c565b90600052602060002090601f0160209004810192826100d8576000855561011f565b82601f106100f157805160ff191683800117855561011f565b8280016001018555821561011f579182015b8281111561011e578251825591602001919060010190610103565b5b50905061012c9190610130565b5090565b5b80821115610149576000816000905550600101610131565b5090565b7f4e487b7100000000000000000000000000000000000000000000000000000000600052602260045260246000fd5b6000600282049050600182168061019457607f821691505b602082108114156101a8576101a761014d565b5b50919050565b610411806101bd6000396000f3fe608060405234801561001057600080fd5b50600436106100575760003560e01c8063807d3cad1461005c5780639433683e1461007a578063a2635f8114610098578063ae176c86146100b6578063c682d43f146100d4575b600080fd5b6100646100f2565b60405161007191906101de565b60405180910390f35b6100826100f8565b60405161008f919061023a565b60405180910390f35b6100a061011e565b6040516100ad9190610270565b60405180910390f35b6100be610131565b6040516100cb91906102a4565b60405180910390f35b6100dc610137565b6040516100e99190610358565b60405180910390f35b60035481565b600460009054906101000a900473ffffffffffffffffffffffffffffffffffffffff1681565b600160009054906101000a900460ff1681565b60005481565b60028054610144906103a9565b80601f0160208091040260200160405190810160405280929190818152602001828054610170906103a9565b80156101bd5780601f10610192576101008083540402835291602001916101bd565b820191906000526020600020905b8154815290600101906020018083116101a057829003601f168201915b505050505081565b6000819050919050565b6101d8816101c5565b82525050565b60006020820190506101f360008301846101cf565b92915050565b600073ffffffffffffffffffffffffffffffffffffffff82169050919050565b6000610224826101f9565b9050919050565b61023481610219565b82525050565b600060208201905061024f600083018461022b565b92915050565b60008115159050919050565b61026a81610255565b82525050565b60006020820190506102856000830184610261565b92915050565b6000819050919050565b61029e8161028b565b82525050565b60006020820190506102b96000830184610295565b92915050565b600081519050919050565b600082825260208201905092915050565b60005b838110156102f95780820151818401526020810190506102de565b83811115610308576000848401525b50505050565b6000601f19601f8301169050919050565b600061032a826102bf565b61033481856102ca565b93506103448185602086016102db565b61034d8161030e565b840191505092915050565b60006020820190508181036000830152610372818461031f565b905092915050565b7f4e487b7100000000000000000000000000000000000000000000000000000000600052602260045260246000fd5b600060028204905060018216806103c157607f821691505b602082108114156103d5576103d461037a565b5b5091905056fea2646970667358221220c6f41fc164fa6114326d60c2b4e73d489ed1d80894df1c81df378254663d28b864736f6c63430008080033",
					"opcodes": "PUSH1 0x80 PUSH1 0x40 MSTORE PUSH1 0x32 PUSH1 0x0 SSTORE PUSH1 0x1 DUP1 PUSH1 0x0 PUSH2 0x100 EXP DUP2 SLOAD DUP2 PUSH1 0xFF MUL NOT AND SWAP1 DUP4 ISZERO ISZERO MUL OR SWAP1 SSTORE POP PUSH1 0x40 MLOAD DUP1 PUSH1 0x40 ADD PUSH1 0x40 MSTORE DUP1 PUSH1 0xE DUP2 MSTORE PUSH1 0x20 ADD PUSH32 0x56656C6C696573776172616E2052000000000000000000000000000000000000 DUP2 MSTORE POP PUSH1 0x2 SWAP1 DUP1 MLOAD SWAP1 PUSH1 0x20 ADD SWAP1 PUSH2 0x6E SWAP3 SWAP2 SWAP1 PUSH2 0xAA JUMP JUMPDEST POP PUSH1 0xA PUSH1 0x3 SSTORE PUSH32 0x76656C6C69657340796F706D61696C2E636F6D00000000000000000000000000 PUSH1 0x5 SSTORE CALLVALUE DUP1 ISZERO PUSH2 0xA4 JUMPI PUSH1 0x0 DUP1 REVERT JUMPDEST POP PUSH2 0x1AE JUMP JUMPDEST DUP3 DUP1 SLOAD PUSH2 0xB6 SWAP1 PUSH2 0x17C JUMP JUMPDEST SWAP1 PUSH1 0x0 MSTORE PUSH1 0x20 PUSH1 0x0 KECCAK256 SWAP1 PUSH1 0x1F ADD PUSH1 0x20 SWAP1 DIV DUP2 ADD SWAP3 DUP3 PUSH2 0xD8 JUMPI PUSH1 0x0 DUP6 SSTORE PUSH2 0x11F JUMP JUMPDEST DUP3 PUSH1 0x1F LT PUSH2 0xF1 JUMPI DUP1 MLOAD PUSH1 0xFF NOT AND DUP4 DUP1 ADD OR DUP6 SSTORE PUSH2 0x11F JUMP JUMPDEST DUP3 DUP1 ADD PUSH1 0x1 ADD DUP6 SSTORE DUP3 ISZERO PUSH2 0x11F JUMPI SWAP2 DUP3 ADD JUMPDEST DUP3 DUP2 GT ISZERO PUSH2 0x11E JUMPI DUP3 MLOAD DUP3 SSTORE SWAP2 PUSH1 0x20 ADD SWAP2 SWAP1 PUSH1 0x1 ADD SWAP1 PUSH2 0x103 JUMP JUMPDEST JUMPDEST POP SWAP1 POP PUSH2 0x12C SWAP2 SWAP1 PUSH2 0x130 JUMP JUMPDEST POP SWAP1 JUMP JUMPDEST JUMPDEST DUP1 DUP3 GT ISZERO PUSH2 0x149 JUMPI PUSH1 0x0 DUP2 PUSH1 0x0 SWAP1 SSTORE POP PUSH1 0x1 ADD PUSH2 0x131 JUMP JUMPDEST POP SWAP1 JUMP JUMPDEST PUSH32 0x4E487B7100000000000000000000000000000000000000000000000000000000 PUSH1 0x0 MSTORE PUSH1 0x22 PUSH1 0x4 MSTORE PUSH1 0x24 PUSH1 0x0 REVERT JUMPDEST PUSH1 0x0 PUSH1 0x2 DUP3 DIV SWAP1 POP PUSH1 0x1 DUP3 AND DUP1 PUSH2 0x194 JUMPI PUSH1 0x7F DUP3 AND SWAP2 POP JUMPDEST PUSH1 0x20 DUP3 LT DUP2 EQ ISZERO PUSH2 0x1A8 JUMPI PUSH2 0x1A7 PUSH2 0x14D JUMP JUMPDEST JUMPDEST POP SWAP2 SWAP1 POP JUMP JUMPDEST PUSH2 0x411 DUP1 PUSH2 0x1BD PUSH1 0x0 CODECOPY PUSH1 0x0 RETURN INVALID PUSH1 0x80 PUSH1 0x40 MSTORE CALLVALUE DUP1 ISZERO PUSH2 0x10 JUMPI PUSH1 0x0 DUP1 REVERT JUMPDEST POP PUSH1 0x4 CALLDATASIZE LT PUSH2 0x57 JUMPI PUSH1 0x0 CALLDATALOAD PUSH1 0xE0 SHR DUP1 PUSH4 0x807D3CAD EQ PUSH2 0x5C JUMPI DUP1 PUSH4 0x9433683E EQ PUSH2 0x7A JUMPI DUP1 PUSH4 0xA2635F81 EQ PUSH2 0x98 JUMPI DUP1 PUSH4 0xAE176C86 EQ PUSH2 0xB6 JUMPI DUP1 PUSH4 0xC682D43F EQ PUSH2 0xD4 JUMPI JUMPDEST PUSH1 0x0 DUP1 REVERT JUMPDEST PUSH2 0x64 PUSH2 0xF2 JUMP JUMPDEST PUSH1 0x40 MLOAD PUSH2 0x71 SWAP2 SWAP1 PUSH2 0x1DE JUMP JUMPDEST PUSH1 0x40 MLOAD DUP1 SWAP2 SUB SWAP1 RETURN JUMPDEST PUSH2 0x82 PUSH2 0xF8 JUMP JUMPDEST PUSH1 0x40 MLOAD PUSH2 0x8F SWAP2 SWAP1 PUSH2 0x23A JUMP JUMPDEST PUSH1 0x40 MLOAD DUP1 SWAP2 SUB SWAP1 RETURN JUMPDEST PUSH2 0xA0 PUSH2 0x11E JUMP JUMPDEST PUSH1 0x40 MLOAD PUSH2 0xAD SWAP2 SWAP1 PUSH2 0x270 JUMP JUMPDEST PUSH1 0x40 MLOAD DUP1 SWAP2 SUB SWAP1 RETURN JUMPDEST PUSH2 0xBE PUSH2 0x131 JUMP JUMPDEST PUSH1 0x40 MLOAD PUSH2 0xCB SWAP2 SWAP1 PUSH2 0x2A4 JUMP JUMPDEST PUSH1 0x40 MLOAD DUP1 SWAP2 SUB SWAP1 RETURN JUMPDEST PUSH2 0xDC PUSH2 0x137 JUMP JUMPDEST PUSH1 0x40 MLOAD PUSH2 0xE9 SWAP2 SWAP1 PUSH2 0x358 JUMP JUMPDEST PUSH1 0x40 MLOAD DUP1 SWAP2 SUB SWAP1 RETURN JUMPDEST PUSH1 0x3 SLOAD DUP2 JUMP JUMPDEST PUSH1 0x4 PUSH1 0x0 SWAP1 SLOAD SWAP1 PUSH2 0x100 EXP SWAP1 DIV PUSH20 0xFFFFFFFFFFFFFFFFFFFFFFFFFFFFFFFFFFFFFFFF AND DUP2 JUMP JUMPDEST PUSH1 0x1 PUSH1 0x0 SWAP1 SLOAD SWAP1 PUSH2 0x100 EXP SWAP1 DIV PUSH1 0xFF AND DUP2 JUMP JUMPDEST PUSH1 0x0 SLOAD DUP2 JUMP JUMPDEST PUSH1 0x2 DUP1 SLOAD PUSH2 0x144 SWAP1 PUSH2 0x3A9 JUMP JUMPDEST DUP1 PUSH1 0x1F ADD PUSH1 0x20 DUP1 SWAP2 DIV MUL PUSH1 0x20 ADD PUSH1 0x40 MLOAD SWAP1 DUP2 ADD PUSH1 0x40 MSTORE DUP1 SWAP3 SWAP2 SWAP1 DUP2 DUP2 MSTORE PUSH1 0x20 ADD DUP3 DUP1 SLOAD PUSH2 0x170 SWAP1 PUSH2 0x3A9 JUMP JUMPDEST DUP1 ISZERO PUSH2 0x1BD JUMPI DUP1 PUSH1 0x1F LT PUSH2 0x192 JUMPI PUSH2 0x100 DUP1 DUP4 SLOAD DIV MUL DUP4 MSTORE SWAP2 PUSH1 0x20 ADD SWAP2 PUSH2 0x1BD JUMP JUMPDEST DUP3 ADD SWAP2 SWAP1 PUSH1 0x0 MSTORE PUSH1 0x20 PUSH1 0x0 KECCAK256 SWAP1 JUMPDEST DUP2 SLOAD DUP2 MSTORE SWAP1 PUSH1 0x1 ADD SWAP1 PUSH1 0x20 ADD DUP1 DUP4 GT PUSH2 0x1A0 JUMPI DUP3 SWAP1 SUB PUSH1 0x1F AND DUP3 ADD SWAP2 JUMPDEST POP POP POP POP POP DUP2 JUMP JUMPDEST PUSH1 0x0 DUP2 SWAP1 POP SWAP2 SWAP1 POP JUMP JUMPDEST PUSH2 0x1D8 DUP2 PUSH2 0x1C5 JUMP JUMPDEST DUP3 MSTORE POP POP JUMP JUMPDEST PUSH1 0x0 PUSH1 0x20 DUP3 ADD SWAP1 POP PUSH2 0x1F3 PUSH1 0x0 DUP4 ADD DUP5 PUSH2 0x1CF JUMP JUMPDEST SWAP3 SWAP2 POP POP JUMP JUMPDEST PUSH1 0x0 PUSH20 0xFFFFFFFFFFFFFFFFFFFFFFFFFFFFFFFFFFFFFFFF DUP3 AND SWAP1 POP SWAP2 SWAP1 POP JUMP JUMPDEST PUSH1 0x0 PUSH2 0x224 DUP3 PUSH2 0x1F9 JUMP JUMPDEST SWAP1 POP SWAP2 SWAP1 POP JUMP JUMPDEST PUSH2 0x234 DUP2 PUSH2 0x219 JUMP JUMPDEST DUP3 MSTORE POP POP JUMP JUMPDEST PUSH1 0x0 PUSH1 0x20 DUP3 ADD SWAP1 POP PUSH2 0x24F PUSH1 0x0 DUP4 ADD DUP5 PUSH2 0x22B JUMP JUMPDEST SWAP3 SWAP2 POP POP JUMP JUMPDEST PUSH1 0x0 DUP2 ISZERO ISZERO SWAP1 POP SWAP2 SWAP1 POP JUMP JUMPDEST PUSH2 0x26A DUP2 PUSH2 0x255 JUMP JUMPDEST DUP3 MSTORE POP POP JUMP JUMPDEST PUSH1 0x0 PUSH1 0x20 DUP3 ADD SWAP1 POP PUSH2 0x285 PUSH1 0x0 DUP4 ADD DUP5 PUSH2 0x261 JUMP JUMPDEST SWAP3 SWAP2 POP POP JUMP JUMPDEST PUSH1 0x0 DUP2 SWAP1 POP SWAP2 SWAP1 POP JUMP JUMPDEST PUSH2 0x29E DUP2 PUSH2 0x28B JUMP JUMPDEST DUP3 MSTORE POP POP JUMP JUMPDEST PUSH1 0x0 PUSH1 0x20 DUP3 ADD SWAP1 POP PUSH2 0x2B9 PUSH1 0x0 DUP4 ADD DUP5 PUSH2 0x295 JUMP JUMPDEST SWAP3 SWAP2 POP POP JUMP JUMPDEST PUSH1 0x0 DUP2 MLOAD SWAP1 POP SWAP2 SWAP1 POP JUMP JUMPDEST PUSH1 0x0 DUP3 DUP3 MSTORE PUSH1 0x20 DUP3 ADD SWAP1 POP SWAP3 SWAP2 POP POP JUMP JUMPDEST PUSH1 0x0 JUMPDEST DUP4 DUP2 LT ISZERO PUSH2 0x2F9 JUMPI DUP1 DUP3 ADD MLOAD DUP2 DUP5 ADD MSTORE PUSH1 0x20 DUP2 ADD SWAP1 POP PUSH2 0x2DE JUMP JUMPDEST DUP4 DUP2 GT ISZERO PUSH2 0x308 JUMPI PUSH1 0x0 DUP5 DUP5 ADD MSTORE JUMPDEST POP POP POP POP JUMP JUMPDEST PUSH1 0x0 PUSH1 0x1F NOT PUSH1 0x1F DUP4 ADD AND SWAP1 POP SWAP2 SWAP1 POP JUMP JUMPDEST PUSH1 0x0 PUSH2 0x32A DUP3 PUSH2 0x2BF JUMP JUMPDEST PUSH2 0x334 DUP2 DUP6 PUSH2 0x2CA JUMP JUMPDEST SWAP4 POP PUSH2 0x344 DUP2 DUP6 PUSH1 0x20 DUP7 ADD PUSH2 0x2DB JUMP JUMPDEST PUSH2 0x34D DUP2 PUSH2 0x30E JUMP JUMPDEST DUP5 ADD SWAP2 POP POP SWAP3 SWAP2 POP POP JUMP JUMPDEST PUSH1 0x0 PUSH1 0x20 DUP3 ADD SWAP1 POP DUP2 DUP2 SUB PUSH1 0x0 DUP4 ADD MSTORE PUSH2 0x372 DUP2 DUP5 PUSH2 0x31F JUMP JUMPDEST SWAP1 POP SWAP3 SWAP2 POP POP JUMP JUMPDEST PUSH32 0x4E487B7100000000000000000000000000000000000000000000000000000000 PUSH1 0x0 MSTORE PUSH1 0x22 PUSH1 0x4 MSTORE PUSH1 0x24 PUSH1 0x0 REVERT JUMPDEST PUSH1 0x0 PUSH1 0x2 DUP3 DIV SWAP1 POP PUSH1 0x1 DUP3 AND DUP1 PUSH2 0x3C1 JUMPI PUSH1 0x7F DUP3 AND SWAP2 POP JUMPDEST PUSH1 0x20 DUP3 LT DUP2 EQ ISZERO PUSH2 0x3D5 JUMPI PUSH2 0x3D4 PUSH2 0x37A JUMP JUMPDEST JUMPDEST POP SWAP2 SWAP1 POP JUMP INVALID LOG2 PUSH5 0x6970667358 0x22 SLT KECCAK256 0xC6 DELEGATECALL 0x1F 0xC1 PUSH5 0xFA6114326D PUSH1 0xC2 0xB4 0xE7 RETURNDATASIZE BASEFEE SWAP15 0xD1 0xD8 ADDMOD SWAP5 0xDF SHR DUP2 0xDF CALLDATACOPY DUP3 SLOAD PUSH7 0x3D28B864736F6C PUSH4 0x43000808 STOP CALLER "
				},
				"gasEstimates": {
					"creation": {
						"codeDepositCost": "208200",
						"executionCost": "infinite",
						"totalCost": "infinite"
					},
					"external": {
						"AccountName()": "infinite",
						"BankBalance()": "2473",
						"MetaMaskWallet()": "2514",
						"NumberOfTransactions()": "2407",
						"OverDraftFlag()": "2493"
					}
				},
				"methodIdentifiers": {
					"AccountName()": "c682d43f",
					"BankBalance()": "ae176c86",
					"MetaMaskWallet()": "9433683e",
					"NumberOfTransactions()": "807d3cad",
					"OverDraftFlag()": "a2635f81"
				}
			},
			"storageLayout": {
				"storage": [
					{
						"astId": 4,
						"contract": "BankSmartContractSolidity/FirstSolidity.sol:FirstSolidity",
						"label": "BankBalance",
						"offset": 0,
						"slot": "0",
						"type": "t_uint256"
					},
					{
						"astId": 7,
						"contract": "BankSmartContractSolidity/FirstSolidity.sol:FirstSolidity",
						"label": "OverDraftFlag",
						"offset": 0,
						"slot": "1",
						"type": "t_bool"
					},
					{
						"astId": 10,
						"contract": "BankSmartContractSolidity/FirstSolidity.sol:FirstSolidity",
						"label": "AccountName",
						"offset": 0,
						"slot": "2",
						"type": "t_string_storage"
					},
					{
						"astId": 13,
						"contract": "BankSmartContractSolidity/FirstSolidity.sol:FirstSolidity",
						"label": "NumberOfTransactions",
						"offset": 0,
						"slot": "3",
						"type": "t_int256"
					},
					{
						"astId": 15,
						"contract": "BankSmartContractSolidity/FirstSolidity.sol:FirstSolidity",
						"label": "MetaMaskWallet",
						"offset": 0,
						"slot": "4",
						"type": "t_address"
					},
					{
						"astId": 18,
						"contract": "BankSmartContractSolidity/FirstSolidity.sol:FirstSolidity",
						"label": "AccountEmail",
						"offset": 0,
						"slot": "5",
						"type": "t_bytes32"
					}
				],
				"types": {
					"t_address": {
						"encoding": "inplace",
						"label": "address",
						"numberOfBytes": "20"
					},
					"t_bool": {
						"encoding": "inplace",
						"label": "bool",
						"numberOfBytes": "1"
					},
					"t_bytes32": {
						"encoding": "inplace",
						"label": "bytes32",
						"numberOfBytes": "32"
					},
					"t_int256": {
						"encoding": "inplace",
						"label": "int256",
						"numberOfBytes": "32"
					},
					"t_string_storage": {
						"encoding": "bytes",
						"label": "string",
						"numberOfBytes": "32"
					},
					"t_uint256": {
						"encoding": "inplace",
						"label": "uint256",
						"numberOfBytes": "32"
					}
				}
			},
			"userdoc": {
				"kind": "user",
				"methods": {},
				"version": 1
			}
		}
	}
}