{
	"data": {
		"bytecode": {
			"linkReferences": {},
			"object": "6080604052603260005560018060006101000a81548160ff0219169083151502179055506040518060400160405280600e81526020017f56656c6c696573776172616e20520000000000000000000000000000000000008152506002908051906020019061006e9291906100aa565b50600a6003557f76656c6c69657340796f706d61696c2e636f6d000000000000000000000000006005553480156100a457600080fd5b506101ae565b8280546100b69061017c565b90600052602060002090601f0160209004810192826100d8576000855561011f565b82601f106100f157805160ff191683800117855561011f565b8280016001018555821561011f579182015b8281111561011e578251825591602001919060010190610103565b5b50905061012c9190610130565b5090565b5b80821115610149576000816000905550600101610131565b5090565b7f4e487b7100000000000000000000000000000000000000000000000000000000600052602260045260246000fd5b6000600282049050600182168061019457607f821691505b602082108114156101a8576101a761014d565b5b50919050565b61017f806101bd6000396000f3fe608060405234801561001057600080fd5b50600436106100415760003560e01c80631e01043914610046578063ae176c8614610062578063d498add314610080575b600080fd5b610060600480360381019061005b91906100f2565b61009e565b005b61006a6100a8565b604051610077919061012e565b60405180910390f35b6100886100ae565b604051610095919061012e565b60405180910390f35b8060008190555050565b60005481565b60008054905090565b600080fd5b6000819050919050565b6100cf816100bc565b81146100da57600080fd5b50565b6000813590506100ec816100c6565b92915050565b600060208284031215610108576101076100b7565b5b6000610116848285016100dd565b91505092915050565b610128816100bc565b82525050565b6000602082019050610143600083018461011f565b9291505056fea26469706673582212207e9b1e4ed7c0970207302175c991eb4d1d2738918bf924ec907381bb27b5cd6f64736f6c63430008080033",
			"opcodes": "PUSH1 0x80 PUSH1 0x40 MSTORE PUSH1 0x32 PUSH1 0x0 SSTORE PUSH1 0x1 DUP1 PUSH1 0x0 PUSH2 0x100 EXP DUP2 SLOAD DUP2 PUSH1 0xFF MUL NOT AND SWAP1 DUP4 ISZERO ISZERO MUL OR SWAP1 SSTORE POP PUSH1 0x40 MLOAD DUP1 PUSH1 0x40 ADD PUSH1 0x40 MSTORE DUP1 PUSH1 0xE DUP2 MSTORE PUSH1 0x20 ADD PUSH32 0x56656C6C696573776172616E2052000000000000000000000000000000000000 DUP2 MSTORE POP PUSH1 0x2 SWAP1 DUP1 MLOAD SWAP1 PUSH1 0x20 ADD SWAP1 PUSH2 0x6E SWAP3 SWAP2 SWAP1 PUSH2 0xAA JUMP JUMPDEST POP PUSH1 0xA PUSH1 0x3 SSTORE PUSH32 0x76656C6C69657340796F706D61696C2E636F6D00000000000000000000000000 PUSH1 0x5 SSTORE CALLVALUE DUP1 ISZERO PUSH2 0xA4 JUMPI PUSH1 0x0 DUP1 REVERT JUMPDEST POP PUSH2 0x1AE JUMP JUMPDEST DUP3 DUP1 SLOAD PUSH2 0xB6 SWAP1 PUSH2 0x17C JUMP JUMPDEST SWAP1 PUSH1 0x0 MSTORE PUSH1 0x20 PUSH1 0x0 KECCAK256 SWAP1 PUSH1 0x1F ADD PUSH1 0x20 SWAP1 DIV DUP2 ADD SWAP3 DUP3 PUSH2 0xD8 JUMPI PUSH1 0x0 DUP6 SSTORE PUSH2 0x11F JUMP JUMPDEST DUP3 PUSH1 0x1F LT PUSH2 0xF1 JUMPI DUP1 MLOAD PUSH1 0xFF NOT AND DUP4 DUP1 ADD OR DUP6 SSTORE PUSH2 0x11F JUMP JUMPDEST DUP3 DUP1 ADD PUSH1 0x1 ADD DUP6 SSTORE DUP3 ISZERO PUSH2 0x11F JUMPI SWAP2 DUP3 ADD JUMPDEST DUP3 DUP2 GT ISZERO PUSH2 0x11E JUMPI DUP3 MLOAD DUP3 SSTORE SWAP2 PUSH1 0x20 ADD SWAP2 SWAP1 PUSH1 0x1 ADD SWAP1 PUSH2 0x103 JUMP JUMPDEST JUMPDEST POP SWAP1 POP PUSH2 0x12C SWAP2 SWAP1 PUSH2 0x130 JUMP JUMPDEST POP SWAP1 JUMP JUMPDEST JUMPDEST DUP1 DUP3 GT ISZERO PUSH2 0x149 JUMPI PUSH1 0x0 DUP2 PUSH1 0x0 SWAP1 SSTORE POP PUSH1 0x1 ADD PUSH2 0x131 JUMP JUMPDEST POP SWAP1 JUMP JUMPDEST PUSH32 0x4E487B7100000000000000000000000000000000000000000000000000000000 PUSH1 0x0 MSTORE PUSH1 0x22 PUSH1 0x4 MSTORE PUSH1 0x24 PUSH1 0x0 REVERT JUMPDEST PUSH1 0x0 PUSH1 0x2 DUP3 DIV SWAP1 POP PUSH1 0x1 DUP3 AND DUP1 PUSH2 0x194 JUMPI PUSH1 0x7F DUP3 AND SWAP2 POP JUMPDEST PUSH1 0x20 DUP3 LT DUP2 EQ ISZERO PUSH2 0x1A8 JUMPI PUSH2 0x1A7 PUSH2 0x14D JUMP JUMPDEST JUMPDEST POP SWAP2 SWAP1 POP JUMP JUMPDEST PUSH2 0x17F DUP1 PUSH2 0x1BD PUSH1 0x0 CODECOPY PUSH1 0x0 RETURN INVALID PUSH1 0x80 PUSH1 0x40 MSTORE CALLVALUE DUP1 ISZERO PUSH2 0x10 JUMPI PUSH1 0x0 DUP1 REVERT JUMPDEST POP PUSH1 0x4 CALLDATASIZE LT PUSH2 0x41 JUMPI PUSH1 0x0 CALLDATALOAD PUSH1 0xE0 SHR DUP1 PUSH4 0x1E010439 EQ PUSH2 0x46 JUMPI DUP1 PUSH4 0xAE176C86 EQ PUSH2 0x62 JUMPI DUP1 PUSH4 0xD498ADD3 EQ PUSH2 0x80 JUMPI JUMPDEST PUSH1 0x0 DUP1 REVERT JUMPDEST PUSH2 0x60 PUSH1 0x4 DUP1 CALLDATASIZE SUB DUP2 ADD SWAP1 PUSH2 0x5B SWAP2 SWAP1 PUSH2 0xF2 JUMP JUMPDEST PUSH2 0x9E JUMP JUMPDEST STOP JUMPDEST PUSH2 0x6A PUSH2 0xA8 JUMP JUMPDEST PUSH1 0x40 MLOAD PUSH2 0x77 SWAP2 SWAP1 PUSH2 0x12E JUMP JUMPDEST PUSH1 0x40 MLOAD DUP1 SWAP2 SUB SWAP1 RETURN JUMPDEST PUSH2 0x88 PUSH2 0xAE JUMP JUMPDEST PUSH1 0x40 MLOAD PUSH2 0x95 SWAP2 SWAP1 PUSH2 0x12E JUMP JUMPDEST PUSH1 0x40 MLOAD DUP1 SWAP2 SUB SWAP1 RETURN JUMPDEST DUP1 PUSH1 0x0 DUP2 SWAP1 SSTORE POP POP JUMP JUMPDEST PUSH1 0x0 SLOAD DUP2 JUMP JUMPDEST PUSH1 0x0 DUP1 SLOAD SWAP1 POP SWAP1 JUMP JUMPDEST PUSH1 0x0 DUP1 REVERT JUMPDEST PUSH1 0x0 DUP2 SWAP1 POP SWAP2 SWAP1 POP JUMP JUMPDEST PUSH2 0xCF DUP2 PUSH2 0xBC JUMP JUMPDEST DUP2 EQ PUSH2 0xDA JUMPI PUSH1 0x0 DUP1 REVERT JUMPDEST POP JUMP JUMPDEST PUSH1 0x0 DUP2 CALLDATALOAD SWAP1 POP PUSH2 0xEC DUP2 PUSH2 0xC6 JUMP JUMPDEST SWAP3 SWAP2 POP POP JUMP JUMPDEST PUSH1 0x0 PUSH1 0x20 DUP3 DUP5 SUB SLT ISZERO PUSH2 0x108 JUMPI PUSH2 0x107 PUSH2 0xB7 JUMP JUMPDEST JUMPDEST PUSH1 0x0 PUSH2 0x116 DUP5 DUP3 DUP6 ADD PUSH2 0xDD JUMP JUMPDEST SWAP2 POP POP SWAP3 SWAP2 POP POP JUMP JUMPDEST PUSH2 0x128 DUP2 PUSH2 0xBC JUMP JUMPDEST DUP3 MSTORE POP POP JUMP JUMPDEST PUSH1 0x0 PUSH1 0x20 DUP3 ADD SWAP1 POP PUSH2 0x143 PUSH1 0x0 DUP4 ADD DUP5 PUSH2 0x11F JUMP JUMPDEST SWAP3 SWAP2 POP POP JUMP INVALID LOG2 PUSH5 0x6970667358 0x22 SLT KECCAK256 PUSH31 0x9B1E4ED7C0970207302175C991EB4D1D2738918BF924EC907381BB27B5CD6F PUSH5 0x736F6C6343 STOP ADDMOD ADDMOD STOP CALLER "
		},
		"gasEstimates": {
			"creation": {
				"codeDepositCost": "76600",
				"executionCost": "infinite",
				"totalCost": "infinite"
			},
			"external": {
				"BankBalance()": "2429",
				"getBalance(uint256)": "22498",
				"getNewBankBalance()": "2459"
			}
		},
		"methodIdentifiers": {
			"BankBalance()": "ae176c86",
			"getBalance(uint256)": "1e010439",
			"getNewBankBalance()": "d498add3"
		}
	},
	"abi": [
		{
			"inputs": [],
			"name": "BankBalance",
			"outputs": [
				{
					"internalType": "uint256",
					"name": "",
					"type": "uint256"
				}
			],
			"stateMutability": "view",
			"type": "function"
		},
		{
			"inputs": [
				{
					"internalType": "uint256",
					"name": "_Amount",
					"type": "uint256"
				}
			],
			"name": "getBalance",
			"outputs": [],
			"stateMutability": "nonpayable",
			"type": "function"
		},
		{
			"inputs": [],
			"name": "getNewBankBalance",
			"outputs": [
				{
					"internalType": "uint256",
					"name": "",
					"type": "uint256"
				}
			],
			"stateMutability": "view",
			"type": "function"
		}
	]
}